{
  "contractName": "ScoreStore",
  "abi": [
    {
      "constant": false,
      "inputs": [
        {
          "name": "name",
          "type": "string"
        },
        {
          "name": "startingScore",
          "type": "int256"
        }
      ],
      "name": "addPersonScore",
      "outputs": [],
      "payable": false,
      "stateMutability": "nonpayable",
      "type": "function"
    },
    {
      "constant": true,
      "inputs": [
        {
          "name": "name",
          "type": "string"
        }
      ],
      "name": "getPersonScore",
      "outputs": [
        {
          "name": "",
          "type": "int256"
        }
      ],
      "payable": false,
      "stateMutability": "view",
      "type": "function"
    }
  ],
  "bytecode": "0x6060604052341561000f57600080fd5b6102b48061001e6000396000f30060606040526004361061004c576000357c0100000000000000000000000000000000000000000000000000000000900463ffffffff1680637a072e5e14610051578063cd7dd27a146100b7575b600080fd5b341561005c57600080fd5b6100b5600480803590602001908201803590602001908080601f01602080910402602001604051908101604052809392919081815260200183838082843782019150505050505091908035906020019091905050610128565b005b34156100c257600080fd5b610112600480803590602001908201803590602001908080601f01602080910402602001604051908101604052809392919081815260200183838082843782019150505050505091905050610214565b6040518082815260200191505060405180910390f35b600080836040518082805190602001908083835b602083101515610161578051825260208201915060208101905060208303925061013c565b6001836020036101000a03801982511681845116808217855250505050505090500191505090815260200160405180910390205413156101a057600080fd5b806000836040518082805190602001908083835b6020831015156101d957805182526020820191506020810190506020830392506101b4565b6001836020036101000a0380198251168184511680821785525050505050509050019150509081526020016040518091039020819055505050565b600080826040518082805190602001908083835b60208310151561024d5780518252602082019150602081019050602083039250610228565b6001836020036101000a03801982511681845116808217855250505050505090500191505090815260200160405180910390205490509190505600a165627a7a723058209e188bbdf4541e2fb9f892cad6649de531a7c7961f7cc0c1a60f32b240c26ebb0029",
  "source": "pragma solidity ^0.4.18;\n\ncontract ScoreStore {\n    \n    mapping (string => int) PersonScores;\n    \n    function addPersonScore(string name, int startingScore) public {\n        if (PersonScores[name] > 0) {\n            revert();\n        } else {\n            PersonScores[name] = startingScore;\n        }\n    }\n\n    function getPersonScore(string name) public view returns(int) {\n        return PersonScores[name];\n    }\n}",
  "sourcePath": "/Users/francois/Project/truffle/hackathon/contracts/ScoreStore.sol",
  "compiler": {
    "name": "solc",
    "version": "0.4.19+commit.c4cbbb05.Emscripten.clang"
  },
  "schemaVersion": "1.0.1",
  "updatedAt": "2018-02-12T20:34:26.099Z"
}