{
  "contractName": "ScoreStore",
  "abi": [
    {
      "constant": false,
      "inputs": [
        {
          "name": "name",
          "type": "string"
        },
        {
          "name": "startingScore",
          "type": "uint256"
        }
      ],
      "name": "addPersonScore",
      "outputs": [],
      "payable": false,
      "stateMutability": "nonpayable",
      "type": "function"
    },
    {
      "constant": true,
      "inputs": [
        {
          "name": "name",
          "type": "string"
        }
      ],
      "name": "getPersonScore",
      "outputs": [
        {
          "name": "",
          "type": "uint256"
        }
      ],
      "payable": false,
      "stateMutability": "view",
      "type": "function"
    }
  ],
  "bytecode": "0x6060604052341561000f57600080fd5b6102b58061001e6000396000f30060606040526004361061004c576000357c0100000000000000000000000000000000000000000000000000000000900463ffffffff168063cd7dd27a14610051578063d06c1320146100c2575b600080fd5b341561005c57600080fd5b6100ac600480803590602001908201803590602001908080601f01602080910402602001604051908101604052809392919081815260200183838082843782019150505050505091905050610128565b6040518082815260200191505060405180910390f35b34156100cd57600080fd5b610126600480803590602001908201803590602001908080601f0160208091040260200160405190810160405280939291908181526020018383808284378201915050505050509190803590602001909190505061019c565b005b600080826040518082805190602001908083835b602083101515610161578051825260208201915060208101905060208303925061013c565b6001836020036101000a0380198251168184511680821785525050505050509050019150509081526020016040518091039020549050919050565b600080836040518082805190602001908083835b6020831015156101d557805182526020820191506020810190506020830392506101b0565b6001836020036101000a038019825116818451168082178552505050505050905001915050908152602001604051809103902054111561021457610285565b806000836040518082805190602001908083835b60208310151561024d5780518252602082019150602081019050602083039250610228565b6001836020036101000a0380198251168184511680821785525050505050509050019150509081526020016040518091039020819055505b50505600a165627a7a72305820afe200470722bd1153278e12cd1a4ba9f9ff59e61aa25fea8e2238cb73de310c0029",
  "source": "pragma solidity ^0.4.19;\n\ncontract ScoreStore {\n\n    mapping (string => uint) PersonScores;\n\n    function addPersonScore(string name, uint startingScore) public {\n        if (PersonScores[name] > 0) {\n            //revert();\n        } else {\n            PersonScores[name] = startingScore;\n        }\n    }\n\n    function getPersonScore(string name) public view returns(uint) {\n        return PersonScores[name];\n    }\n}\n",
  "sourcePath": "/Users/francois/Project/truffle/hackathon/contracts/ScoreStore.sol",
  "compiler": {
    "name": "solc",
    "version": "0.4.19+commit.c4cbbb05.Emscripten.clang"
  },
  "schemaVersion": "1.0.1",
  "updatedAt": "2018-02-14T11:57:46.690Z"
}